:10000000000000308A00B428FF00030E8301A10025
:100010000A08A0008A010408A2007708A300780853
:10002000A4007908A5007A08A600831383128B1E0A
:100030001B280B192C28220884002308F700240809
:10004000F8002508F9002608FA0020088A00210E89
:100050008300FF0E7F0E09008A110A122F28C1307B
:1000600081002718392883160612831206162714D2
:100070003E28831606128312061227100B118A11CE
:100080000A121B280330AB02031C50282B308400BB
:1000900083130008031950284E284E28800B4D2842
:1000A000080083160611831206150730AA007E3059
:1000B000AB004220AA0B57288316061183120611A3
:1000C0000730AA007E30AB004220AA0B622808004D
:1000D00083160611831206110730AA007E30AB008A
:1000E0004220AA0B6E2883160611831206150730CC
:1000F000AA007E30AB004220AA0B792808005120CC
:1001000051206820682068206820A91F8928512074
:100110008A286820291F8E2851208F286820A91E30
:100120009328512094286820291E98285120992826
:100130006820A91D9D2851209E286820291DA228DD
:100140005120A3286820A91CA7285120A82868208E
:10015000291CAC285120AD28682083160611831273
:1001600006158A110A12E328840183131F308305C0
:10017000153083169900A6309800903083129800AD
:10018000271083161F149F141F159F1107309C0002
:100190000030860086018312860183160108C73964
:1001A0000838810083128B16C0308B048316061129
:1001B000831206158C1EE3288C1EDC281A08A80062
:1001C0002808A9007F288316061183120615DA284D
:0201D000E8281D
:02400E003A373F
:00000001FF
;PIC16F877A
;CRC=5250  CREATED="04-nov.-13 18:07"
